{
  "contractName": "ExpenseManagerContract",
  "abi": [
    {
      "inputs": [],
      "stateMutability": "nonpayable",
      "type": "constructor"
    },
    {
      "anonymous": false,
      "inputs": [
        {
          "indexed": true,
          "internalType": "address",
          "name": "_from",
          "type": "address"
        },
        {
          "indexed": false,
          "internalType": "uint256",
          "name": "_amount",
          "type": "uint256"
        },
        {
          "indexed": false,
          "internalType": "string",
          "name": "_reason",
          "type": "string"
        },
        {
          "indexed": false,
          "internalType": "uint256",
          "name": "_timestamp",
          "type": "uint256"
        }
      ],
      "name": "Deposit",
      "type": "event"
    },
    {
      "anonymous": false,
      "inputs": [
        {
          "indexed": true,
          "internalType": "address",
          "name": "_to",
          "type": "address"
        },
        {
          "indexed": false,
          "internalType": "uint256",
          "name": "_amount",
          "type": "uint256"
        },
        {
          "indexed": false,
          "internalType": "string",
          "name": "_reason",
          "type": "string"
        },
        {
          "indexed": false,
          "internalType": "uint256",
          "name": "_timestamp",
          "type": "uint256"
        }
      ],
      "name": "Withdrawal",
      "type": "event"
    },
    {
      "inputs": [
        {
          "internalType": "address",
          "name": "",
          "type": "address"
        }
      ],
      "name": "balances",
      "outputs": [
        {
          "internalType": "uint256",
          "name": "",
          "type": "uint256"
        }
      ],
      "stateMutability": "view",
      "type": "function"
    },
    {
      "inputs": [],
      "name": "owner",
      "outputs": [
        {
          "internalType": "address",
          "name": "",
          "type": "address"
        }
      ],
      "stateMutability": "view",
      "type": "function"
    },
    {
      "inputs": [
        {
          "internalType": "uint256",
          "name": "",
          "type": "uint256"
        }
      ],
      "name": "transactions",
      "outputs": [
        {
          "internalType": "address",
          "name": "user",
          "type": "address"
        },
        {
          "internalType": "uint256",
          "name": "amount",
          "type": "uint256"
        },
        {
          "internalType": "string",
          "name": "reason",
          "type": "string"
        },
        {
          "internalType": "uint256",
          "name": "timestamp",
          "type": "uint256"
        }
      ],
      "stateMutability": "view",
      "type": "function"
    },
    {
      "inputs": [
        {
          "internalType": "uint256",
          "name": "_amount",
          "type": "uint256"
        },
        {
          "internalType": "string",
          "name": "_reason",
          "type": "string"
        }
      ],
      "name": "deposit",
      "outputs": [],
      "stateMutability": "payable",
      "type": "function"
    },
    {
      "inputs": [
        {
          "internalType": "uint256",
          "name": "_amount",
          "type": "uint256"
        },
        {
          "internalType": "string",
          "name": "_reason",
          "type": "string"
        }
      ],
      "name": "withdraw",
      "outputs": [],
      "stateMutability": "nonpayable",
      "type": "function"
    },
    {
      "inputs": [
        {
          "internalType": "address",
          "name": "_account",
          "type": "address"
        }
      ],
      "name": "getBalance",
      "outputs": [
        {
          "internalType": "uint256",
          "name": "",
          "type": "uint256"
        }
      ],
      "stateMutability": "view",
      "type": "function"
    },
    {
      "inputs": [],
      "name": "getTransactionsCount",
      "outputs": [
        {
          "internalType": "uint256",
          "name": "",
          "type": "uint256"
        }
      ],
      "stateMutability": "view",
      "type": "function"
    },
    {
      "inputs": [
        {
          "internalType": "uint256",
          "name": "_index",
          "type": "uint256"
        }
      ],
      "name": "getTransaction",
      "outputs": [
        {
          "internalType": "address",
          "name": "",
          "type": "address"
        },
        {
          "internalType": "uint256",
          "name": "",
          "type": "uint256"
        },
        {
          "internalType": "string",
          "name": "",
          "type": "string"
        },
        {
          "internalType": "uint256",
          "name": "",
          "type": "uint256"
        }
      ],
      "stateMutability": "view",
      "type": "function"
    },
    {
      "inputs": [],
      "name": "getAllTransactions",
      "outputs": [
        {
          "internalType": "address[]",
          "name": "",
          "type": "address[]"
        },
        {
          "internalType": "uint256[]",
          "name": "",
          "type": "uint256[]"
        },
        {
          "internalType": "string[]",
          "name": "",
          "type": "string[]"
        },
        {
          "internalType": "uint256[]",
          "name": "",
          "type": "uint256[]"
        }
      ],
      "stateMutability": "view",
      "type": "function"
    },
    {
      "inputs": [
        {
          "internalType": "address",
          "name": "_newOwner",
          "type": "address"
        }
      ],
      "name": "changeOwner",
      "outputs": [],
      "stateMutability": "nonpayable",
      "type": "function"
    }
  ],
  "bytecode": "0x608060405234801561001057600080fd5b50336000806101000a81548173ffffffffffffffffffffffffffffffffffffffff021916908373ffffffffffffffffffffffffffffffffffffffff160217905550611af8806100606000396000f3fe6080604052600436106100915760003560e01c80639ace38c2116100595780639ace38c214610197578063a6f9dae1146101d7578063dc048cf214610200578063f1215d2514610229578063f8b2cb4f1461024557610091565b806327506f531461009657806327e235e3146100c457806333ea3dc814610101578063578cb8f9146101415780638da5cb5b1461016c575b600080fd5b3480156100a257600080fd5b506100ab610282565b6040516100bb94939291906110fa565b60405180910390f35b3480156100d057600080fd5b506100eb60048036038101906100e6919061119b565b6105f8565b6040516100f891906111d7565b60405180910390f35b34801561010d57600080fd5b506101286004803603810190610123919061121e565b610610565b60405161013894939291906112a4565b60405180910390f35b34801561014d57600080fd5b506101566107af565b60405161016391906111d7565b60405180910390f35b34801561017857600080fd5b506101816107bc565b60405161018e91906112f0565b60405180910390f35b3480156101a357600080fd5b506101be60048036038101906101b9919061121e565b6107e0565b6040516101ce94939291906112a4565b60405180910390f35b3480156101e357600080fd5b506101fe60048036038101906101f9919061119b565b6108c8565b005b34801561020c57600080fd5b5061022760048036038101906102229190611440565b610999565b005b610243600480360381019061023e9190611440565b610be3565b005b34801561025157600080fd5b5061026c6004803603810190610267919061119b565b610da7565b60405161027991906111d7565b60405180910390f35b606080606080600060028054905067ffffffffffffffff8111156102a9576102a8611315565b5b6040519080825280602002602001820160405280156102d75781602001602082028036833780820191505090505b509050600060028054905067ffffffffffffffff8111156102fb576102fa611315565b5b6040519080825280602002602001820160405280156103295781602001602082028036833780820191505090505b509050600060028054905067ffffffffffffffff81111561034d5761034c611315565b5b60405190808252806020026020018201604052801561038057816020015b606081526020019060019003908161036b5790505b509050600060028054905067ffffffffffffffff8111156103a4576103a3611315565b5b6040519080825280602002602001820160405280156103d25781602001602082028036833780820191505090505b50905060005b6002805490508110156105e157600281815481106103f9576103f861149c565b5b906000526020600020906004020160000160009054906101000a900473ffffffffffffffffffffffffffffffffffffffff1685828151811061043e5761043d61149c565b5b602002602001019073ffffffffffffffffffffffffffffffffffffffff16908173ffffffffffffffffffffffffffffffffffffffff16815250506002818154811061048c5761048b61149c565b5b9060005260206000209060040201600101548482815181106104b1576104b061149c565b5b602002602001018181525050600281815481106104d1576104d061149c565b5b906000526020600020906004020160020180546104ed906114fa565b80601f0160208091040260200160405190810160405280929190818152602001828054610519906114fa565b80156105665780601f1061053b57610100808354040283529160200191610566565b820191906000526020600020905b81548152906001019060200180831161054957829003601f168201915b505050505083828151811061057e5761057d61149c565b5b60200260200101819052506002818154811061059d5761059c61149c565b5b9060005260206000209060040201600301548282815181106105c2576105c161149c565b5b60200260200101818152505080806105d99061155a565b9150506103d8565b508383838397509750975097505050505090919293565b60016020528060005260406000206000915090505481565b60008060606000600280549050851061065e576040517f08c379a0000000000000000000000000000000000000000000000000000000008152600401610655906115ee565b60405180910390fd5b6000600286815481106106745761067361149c565b5b90600052602060002090600402016040518060800160405290816000820160009054906101000a900473ffffffffffffffffffffffffffffffffffffffff1673ffffffffffffffffffffffffffffffffffffffff1673ffffffffffffffffffffffffffffffffffffffff168152602001600182015481526020016002820180546106fd906114fa565b80601f0160208091040260200160405190810160405280929190818152602001828054610729906114fa565b80156107765780601f1061074b57610100808354040283529160200191610776565b820191906000526020600020905b81548152906001019060200180831161075957829003601f168201915b50505050508152602001600382015481525050905080600001518160200151826040015183606001519450945094509450509193509193565b6000600280549050905090565b60008054906101000a900473ffffffffffffffffffffffffffffffffffffffff1681565b600281815481106107f057600080fd5b90600052602060002090600402016000915090508060000160009054906101000a900473ffffffffffffffffffffffffffffffffffffffff169080600101549080600201805461083f906114fa565b80601f016020809104026020016040519081016040528092919081815260200182805461086b906114fa565b80156108b85780601f1061088d576101008083540402835291602001916108b8565b820191906000526020600020905b81548152906001019060200180831161089b57829003601f168201915b5050505050908060030154905084565b60008054906101000a900473ffffffffffffffffffffffffffffffffffffffff1673ffffffffffffffffffffffffffffffffffffffff163373ffffffffffffffffffffffffffffffffffffffff1614610956576040517f08c379a000000000000000000000000000000000000000000000000000000000815260040161094d90611680565b60405180910390fd5b806000806101000a81548173ffffffffffffffffffffffffffffffffffffffff021916908373ffffffffffffffffffffffffffffffffffffffff16021790555050565b81600160003373ffffffffffffffffffffffffffffffffffffffff1673ffffffffffffffffffffffffffffffffffffffff168152602001908152602001600020541015610a1b576040517f08c379a0000000000000000000000000000000000000000000000000000000008152600401610a12906116ec565b60405180910390fd5b81600160003373ffffffffffffffffffffffffffffffffffffffff1673ffffffffffffffffffffffffffffffffffffffff1681526020019081526020016000206000828254610a6a919061170c565b92505081905550600260405180608001604052803373ffffffffffffffffffffffffffffffffffffffff16815260200184815260200183815260200142815250908060018154018082558091505060019003906000526020600020906004020160009091909190915060008201518160000160006101000a81548173ffffffffffffffffffffffffffffffffffffffff021916908373ffffffffffffffffffffffffffffffffffffffff160217905550602082015181600101556040820151816002019081610b3991906118ec565b506060820151816003015550503373ffffffffffffffffffffffffffffffffffffffff166108fc839081150290604051600060405180830381858888f19350505050158015610b8c573d6000803e3d6000fd5b503373ffffffffffffffffffffffffffffffffffffffff167f42e5601561a28fe01293d8e5a72fcd00f67e4b344b1526153d217c73c53c398d838342604051610bd7939291906119be565b60405180910390a25050565b60008211610c26576040517f08c379a0000000000000000000000000000000000000000000000000000000008152600401610c1d90611a6e565b60405180910390fd5b81600160003373ffffffffffffffffffffffffffffffffffffffff1673ffffffffffffffffffffffffffffffffffffffff1681526020019081526020016000206000828254610c759190611a8e565b92505081905550600260405180608001604052803373ffffffffffffffffffffffffffffffffffffffff16815260200184815260200183815260200142815250908060018154018082558091505060019003906000526020600020906004020160009091909190915060008201518160000160006101000a81548173ffffffffffffffffffffffffffffffffffffffff021916908373ffffffffffffffffffffffffffffffffffffffff160217905550602082015181600101556040820151816002019081610d4491906118ec565b506060820151816003015550503373ffffffffffffffffffffffffffffffffffffffff167f6314311867196e2cc4664d73a351321ff78ae80b0220bcfbce2b464fd6fb86cb838342604051610d9b939291906119be565b60405180910390a25050565b6000600160008373ffffffffffffffffffffffffffffffffffffffff1673ffffffffffffffffffffffffffffffffffffffff168152602001908152602001600020549050919050565b600081519050919050565b600082825260208201905092915050565b6000819050602082019050919050565b600073ffffffffffffffffffffffffffffffffffffffff82169050919050565b6000610e4782610e1c565b9050919050565b610e5781610e3c565b82525050565b6000610e698383610e4e565b60208301905092915050565b6000602082019050919050565b6000610e8d82610df0565b610e978185610dfb565b9350610ea283610e0c565b8060005b83811015610ed3578151610eba8882610e5d565b9750610ec583610e75565b925050600181019050610ea6565b5085935050505092915050565b600081519050919050565b600082825260208201905092915050565b6000819050602082019050919050565b6000819050919050565b610f1f81610f0c565b82525050565b6000610f318383610f16565b60208301905092915050565b6000602082019050919050565b6000610f5582610ee0565b610f5f8185610eeb565b9350610f6a83610efc565b8060005b83811015610f9b578151610f828882610f25565b9750610f8d83610f3d565b925050600181019050610f6e565b5085935050505092915050565b600081519050919050565b600082825260208201905092915050565b6000819050602082019050919050565b600081519050919050565b600082825260208201905092915050565b60005b8381101561100e578082015181840152602081019050610ff3565b60008484015250505050565b6000601f19601f8301169050919050565b600061103682610fd4565b6110408185610fdf565b9350611050818560208601610ff0565b6110598161101a565b840191505092915050565b6000611070838361102b565b905092915050565b6000602082019050919050565b600061109082610fa8565b61109a8185610fb3565b9350836020820285016110ac85610fc4565b8060005b858110156110e857848403895281516110c98582611064565b94506110d483611078565b925060208a019950506001810190506110b0565b50829750879550505050505092915050565b600060808201905081810360008301526111148187610e82565b905081810360208301526111288186610f4a565b9050818103604083015261113c8185611085565b905081810360608301526111508184610f4a565b905095945050505050565b6000604051905090565b600080fd5b600080fd5b61117881610e3c565b811461118357600080fd5b50565b6000813590506111958161116f565b92915050565b6000602082840312156111b1576111b0611165565b5b60006111bf84828501611186565b91505092915050565b6111d181610f0c565b82525050565b60006020820190506111ec60008301846111c8565b92915050565b6111fb81610f0c565b811461120657600080fd5b50565b600081359050611218816111f2565b92915050565b60006020828403121561123457611233611165565b5b600061124284828501611209565b91505092915050565b61125481610e3c565b82525050565b600082825260208201905092915050565b600061127682610fd4565b611280818561125a565b9350611290818560208601610ff0565b6112998161101a565b840191505092915050565b60006080820190506112b9600083018761124b565b6112c660208301866111c8565b81810360408301526112d8818561126b565b90506112e760608301846111c8565b95945050505050565b6000602082019050611305600083018461124b565b92915050565b600080fd5b600080fd5b7f4e487b7100000000000000000000000000000000000000000000000000000000600052604160045260246000fd5b61134d8261101a565b810181811067ffffffffffffffff8211171561136c5761136b611315565b5b80604052505050565b600061137f61115b565b905061138b8282611344565b919050565b600067ffffffffffffffff8211156113ab576113aa611315565b5b6113b48261101a565b9050602081019050919050565b82818337600083830152505050565b60006113e36113de84611390565b611375565b9050828152602081018484840111156113ff576113fe611310565b5b61140a8482856113c1565b509392505050565b600082601f8301126114275761142661130b565b5b81356114378482602086016113d0565b91505092915050565b6000806040838503121561145757611456611165565b5b600061146585828601611209565b925050602083013567ffffffffffffffff8111156114865761148561116a565b5b61149285828601611412565b9150509250929050565b7f4e487b7100000000000000000000000000000000000000000000000000000000600052603260045260246000fd5b7f4e487b7100000000000000000000000000000000000000000000000000000000600052602260045260246000fd5b6000600282049050600182168061151257607f821691505b602082108103611525576115246114cb565b5b50919050565b7f4e487b7100000000000000000000000000000000000000000000000000000000600052601160045260246000fd5b600061156582610f0c565b91507fffffffffffffffffffffffffffffffffffffffffffffffffffffffffffffffff82036115975761159661152b565b5b600182019050919050565b7f5472616e73616374696f6e20696e646578206f7574206f6620626f756e647300600082015250565b60006115d8601f8361125a565b91506115e3826115a2565b602082019050919050565b60006020820190508181036000830152611607816115cb565b9050919050565b7f4f6e6c7920636f6e7472616374206f776e65722063616e2063616c6c2074686960008201527f732066756e6374696f6e00000000000000000000000000000000000000000000602082015250565b600061166a602a8361125a565b91506116758261160e565b604082019050919050565b600060208201905081810360008301526116998161165d565b9050919050565b7f496e73756666696369656e742062616c616e6365000000000000000000000000600082015250565b60006116d660148361125a565b91506116e1826116a0565b602082019050919050565b60006020820190508181036000830152611705816116c9565b9050919050565b600061171782610f0c565b915061172283610f0c565b925082820390508181111561173a5761173961152b565b5b92915050565b60008190508160005260206000209050919050565b60006020601f8301049050919050565b600082821b905092915050565b6000600883026117a27fffffffffffffffffffffffffffffffffffffffffffffffffffffffffffffffff82611765565b6117ac8683611765565b95508019841693508086168417925050509392505050565b6000819050919050565b60006117e96117e46117df84610f0c565b6117c4565b610f0c565b9050919050565b6000819050919050565b611803836117ce565b61181761180f826117f0565b848454611772565b825550505050565b600090565b61182c61181f565b6118378184846117fa565b505050565b5b8181101561185b57611850600082611824565b60018101905061183d565b5050565b601f8211156118a05761187181611740565b61187a84611755565b81016020851015611889578190505b61189d61189585611755565b83018261183c565b50505b505050565b600082821c905092915050565b60006118c3600019846008026118a5565b1980831691505092915050565b60006118dc83836118b2565b9150826002028217905092915050565b6118f582610fd4565b67ffffffffffffffff81111561190e5761190d611315565b5b61191882546114fa565b61192382828561185f565b600060209050601f8311600181146119565760008415611944578287015190505b61194e85826118d0565b8655506119b6565b601f19841661196486611740565b60005b8281101561198c57848901518255600182019150602085019450602081019050611967565b868310156119a957848901516119a5601f8916826118b2565b8355505b6001600288020188555050505b505050505050565b60006060820190506119d360008301866111c8565b81810360208301526119e5818561126b565b90506119f460408301846111c8565b949350505050565b7f4465706f73697420616d6f756e74206d7573742062652067726561746572207460008201527f68616e2030000000000000000000000000000000000000000000000000000000602082015250565b6000611a5860258361125a565b9150611a63826119fc565b604082019050919050565b60006020820190508181036000830152611a8781611a4b565b9050919050565b6000611a9982610f0c565b9150611aa483610f0c565b9250828201905080821115611abc57611abb61152b565b5b9291505056fea2646970667358221220d62eaecfba319af2736f530be66873a2333b6f4e006b7387a7d4c7cab39a3e5264736f6c63430008130033",
  "immutableReferences": {},
  "source": "// SPDX-License-Identifier: MIT\r\npragma solidity ^0.8.19;\r\n\r\ncontract ExpenseManagerContract {\r\n    address public owner;\r\n\r\n    event Deposit(\r\n        address indexed _from,\r\n        uint _amount,\r\n        string _reason,\r\n        uint _timestamp\r\n    );\r\n    event Withdrawal(\r\n        address indexed _to,\r\n        uint _amount,\r\n        string _reason,\r\n        uint _timestamp\r\n    );\r\n\r\n    struct Transaction {\r\n        address user;\r\n        uint amount;\r\n        string reason;\r\n        uint timestamp;\r\n    }\r\n\r\n    mapping(address => uint) public balances;\r\n    Transaction[] public transactions;\r\n\r\n    constructor() {\r\n        owner = msg.sender;\r\n    }\r\n\r\n    modifier onlyOwner() {\r\n        require(\r\n            msg.sender == owner,\r\n            \"Only contract owner can call this function\"\r\n        );\r\n        _;\r\n    }\r\n\r\n    function deposit(uint _amount, string memory _reason) public payable {\r\n        require(_amount > 0, \"Deposit amount must be greater than 0\");\r\n        balances[msg.sender] += _amount;\r\n        transactions.push(\r\n            Transaction(msg.sender, _amount, _reason, block.timestamp)\r\n        );\r\n        emit Deposit(msg.sender, _amount, _reason, block.timestamp);\r\n    }\r\n\r\n    function withdraw(uint _amount, string memory _reason) public {\r\n        require(balances[msg.sender] >= _amount, \"Insufficient balance\");\r\n        balances[msg.sender] -= _amount;\r\n        transactions.push(\r\n            Transaction(msg.sender, _amount, _reason, block.timestamp)\r\n        );\r\n        payable(msg.sender).transfer(_amount);\r\n        emit Withdrawal(msg.sender, _amount, _reason, block.timestamp);\r\n    }\r\n\r\n    function getBalance(address _account) public view returns (uint) {\r\n        return balances[_account];\r\n    }\r\n\r\n    function getTransactionsCount() public view returns (uint) {\r\n        return transactions.length;\r\n    }\r\n\r\n    function getTransaction(\r\n        uint _index\r\n    ) public view returns (address, uint, string memory, uint) {\r\n        require(\r\n            _index < transactions.length,\r\n            \"Transaction index out of bounds\"\r\n        );\r\n        Transaction memory transaction = transactions[_index];\r\n        return (\r\n            transaction.user,\r\n            transaction.amount,\r\n            transaction.reason,\r\n            transaction.timestamp\r\n        );\r\n    }\r\n\r\n    function getAllTransactions()\r\n        public\r\n        view\r\n        returns (\r\n            address[] memory,\r\n            uint[] memory,\r\n            string[] memory,\r\n            uint[] memory\r\n        )\r\n    {\r\n        address[] memory users = new address[](transactions.length);\r\n        uint[] memory amounts = new uint[](transactions.length);\r\n        string[] memory reasons = new string[](transactions.length);\r\n        uint[] memory timestamps = new uint[](transactions.length);\r\n\r\n        for (uint i = 0; i < transactions.length; i++) {\r\n            users[i] = transactions[i].user;\r\n            amounts[i] = transactions[i].amount;\r\n            reasons[i] = transactions[i].reason;\r\n            timestamps[i] = transactions[i].timestamp;\r\n        }\r\n\r\n        return (users, amounts, reasons, timestamps);\r\n    }\r\n\r\n    function changeOwner(address _newOwner) public onlyOwner {\r\n        owner = _newOwner;\r\n    }\r\n}",
  "sourcePath": "C:\\Users\\arjun\\ethereum\\contracts\\ExpenseManagerContract.sol",
  "compiler": {
    "name": "solc",
    "version": "0.8.19+commit.7dd6d404.Emscripten.clang"
  },
  "schemaVersion": "3.4.16",
  "updatedAt": "2025-08-12T15:04:27.017Z",
  "devdoc": {
    "kind": "dev",
    "methods": {},
    "version": 1
  },
  "userdoc": {
    "kind": "user",
    "methods": {},
    "version": 1
  }
}